:020000040800F2
:100000005007002089010008D5140008CD1400080D
:10001000D114000845020008E9140008000000009F
:10002000000000000000000000000000DD140008D7
:100030004902000800000000D9140008E11400087B
:10004000A3010008A3010008A3010008A301000800
:10005000A3010008A3010008A3010008A3010008F0
:10006000A3010008A3010008A3010008A3010008E0
:10007000A3010008A3010008A3010008A3010008D0
:10008000A3010008A3010008A3010008A3010008C0
:10009000A3010008A3010008A3010008A3010008B0
:1000A000A3010008A3010008A3010008A3010008A0
:1000B000A3010008A3010008A3010008A301000890
:1000C000A3010008A3010008A3010008A301000880
:1000D000A3010008A3010008A3010008A301000870
:1000E000A3010008A3010008A301000800F002F822
:1000F00000F03AF80AA090E8000C82448344AAF188
:100100000107DA4501D100F02FF8AFF2090EBAE885
:100110000F0013F0010F18BFFB1A43F0010318473B
:100120009C160000BC160000103A24BF78C878C1A5
:10013000FAD8520724BF30C830C144BF04680C60ED
:10014000704700000023002400250026103A28BF35
:1001500078C1FBD8520728BF30C148BF0B60704739
:100160001FB51FBD10B510BD00F031F81146FFF7E7
:10017000F7FF01F0BBF900F04FF803B4FFF7F2FF0F
:1001800003BC00F057F800000948804709480047C1
:10019000FEE7FEE7FEE7FEE7FEE7FEE7FEE7FEE737
:1001A000FEE7FEE704480549054A064B7047000094
:1001B000E5140008ED000008500100205007002061
:1001C0005003002050030020704770477047754669
:1001D00000F02CF8AE4605006946534620F00700B3
:1001E000854618B020B5FFF7DDFFBDE820404FF091
:1001F00000064FF000074FF000084FF0000BAC4630
:10020000ACE8C009ACE8C009ACE8C009ACE8C0097A
:1002100021F007018D46704710B50446AFF300800A
:100220002046BDE81040FFF7A8BF00000048704717
:100230001000002001491820ABBEFEE72600020096
:1002400070470000FEE70000704700002DE9F04F06
:1002500082B041F20042C4F201020E6804239042CF
:1002600008BF0323002E009300F0F68040F20C4EEE
:100270004FF6FF7CC4F2010E00220124C1F2100CE3
:100280004FF0000A4FF0000943E000BF012502F0E3
:100290000C040F27A7402BEA070705FA04F43C4398
:1002A00043F82640D1F804B040F20045C4F20105FD
:1002B0005FEACB332B6854BF23EA080343EA080301
:1002C0002B606B685FEA8B3454BF23EA080343EA70
:1002D00008036B605FEACB24AB6854BF23EA0803D2
:1002E00043EA08035FEA8B24AB60DEF800304FF08E
:1002F000010454BF23EA080343EA0803CEF80030A0
:100300000E680AF1010A36FA0AF302F1040200F05B
:10031000A38004FA0AF816EA080FF1D04B68634587
:1003200012DC122B56D8DFE803F0350B4549555542
:1003300055555555555555555555554D510000BFB9
:10034000D1F80C9046E000BF4FF6FF77C1F22107CD
:10035000BB420FDC0027C1F21107BB421AD00027B5
:10036000C1F21207BB4215D00027C1F22107BB42E0
:1003700010D02FE00027C1F22207BB420AD000278D
:10038000C1F23107BB4205D00027C1F23207BB42A0
:1003900020D100BF8B684BB1012B14BFC0F8148073
:1003A000C0F810804FF0080914E000BF4FF00409B6
:1003B00010E000BFCB6803F108090BE04FF0000923
:1003C00008E000BFCB6803F1040903E0CB6803F148
:1003D0000C0900BF13460546BAF1080F24BF203BA5
:1003E00004352E680F279F40BE4309FA03F33343B9
:1003F0002B60CB79DB067FF583AF41F21804C4F2A2
:10040000020423684FEA9A0643F00103236023683D
:1004100040F6000403F001030193019B40F2004306
:10042000C4F20103A3F57E7353F826B0C4F20104AD
:10043000A0420FD040F60044C4F20104A0423FF4B1
:1004400025AF41F20004C4F20104009DA04208BFA0
:1004500002251CE700251AE702B0BDE8F08F000076
:10046000002A08BF090401617047000040F24810EB
:10047000C2F200000068704740F2000040F24811EC
:10048000C2F20000C2F2000100780A68104408605D
:100490007047000080B542F20000C4F2020001681B
:1004A00041F010010160032000F07AF80F2000F005
:1004B00005F800F027F8002080BD000070B540F27C
:1004C0000006C2F2000640F208013278C2F20001D2
:1004D0004FF47A730968B3FBF2F20446B1FBF2F110
:1004E000084600F04FFB0F2C4FF0010508D838B933
:1004F0004FF0FF3021460022002500F025F87460FF
:10050000284670BD82B041F21800C4F202000168B2
:10051000022241F001010160016801F00101019135
:100520000199416841F080514160406800F080507D
:10053000009000980420C4F20100016862F31A617F
:10054000016002B07047000010B54EF60C5CCEF2B0
:10055000000CDCF80030C3F3022E8EF00704042CEC
:1005600028BF0424BEF103034FF0FF3E0EFA04F44B
:1005700038BF0023A14399400EFA03F39A43114375
:1005800000F00F02043A624409010C3200F16043AA
:10059000B0F1FF3FC8BF03F56442117010BD000009
:1005A0004EF60C51CEF200010A684FF6FF031A40D6
:1005B00060F30A2242F0806040F0FD7008607047EE
:1005C0002DE9F04381B0002800F0858042F2000858
:1005D000C4F202080446D8F800000D4600F00700F7
:1005E00088420CD2D8F8000020F007002843C8F851
:1005F0000000D8F8000000F00700A8426BD1206886
:1006000041F204098107C4F2020917D5410705D553
:10061000D9F8001041F4E061C9F80010010705D5D0
:10062000D9F8001041F46051C9F80010D9F8001051
:10063000A26821F0F0011143C9F80010C00741D1B0
:10064000D8F8000000F00700A8420CD9D8F8000044
:1006500020F007002843C8F80000D8F8000000F098
:100660000700A84237D12068410707D5D9F8001004
:10067000E26821F4E0611143C9F80010000708D5D1
:10068000D9F80000216920F4605040EAC100C9F89F
:100690000000D9F8002002F00C00082841F20020E8
:1006A000C0F27A0050D141F2AA73C2F38341C0F67E
:1006B0000003595CD2033BD440F60010C0F23D0069
:1006C000484341E0606802280AD001282AD159F83D
:1006D000041C890308D4012001B0BDE8F08300BFE9
:1006E00059F8041C8901F6D5D9F8001021F003014E
:1006F0000843C9F80000FFF7B9FE064641F2883703
:10070000D9F80000616800F00C00B0EB810F97D0C1
:10071000FFF7ACFE801BB842F2D9032001B0BDE860
:10072000F08300BF59F8041C8907D4D5DCE700BF6B
:10073000D9F8002041F29073C2F34042C0F60003A2
:100740009A5C4843B0FBF2F0D9F8001041F2927283
:10075000C1F30311C0F60002515C40F2080220FA16
:1007600001F140F20400C2F200000068C2F200028F
:100770001160FFF7A3FE002001B0BDE8F083000088
:1007800040F2080041F20401C2F20000C4F202018A
:100790000068096841F2A272C1F30221C0F60002AA
:1007A000515CC8407047000040F2080041F204016B
:1007B000C2F20000C4F202010068096841F2A272AC
:1007C000C1F3C221C0F60002515CC840704700006E
:1007D0002DE9F04182B0002868D00446007841F24B
:1007E0000006C007C4F2020625D0706800F00C00B5
:1007F00004281BD0706800F00C00082802D1706833
:10080000C00313D46068002800F06881B0F5A02F01
:1008100000F07C81B0F5803F00F07C81306820F4EE
:1008200080303060306820F4802076E130688003CA
:1008300001D56068D0B32078800718D5706810F0B3
:100840000C0F07D0706800F00C0008286ED170689B
:10085000C0036BD43068800702D52069012825D1F8
:100860003068616920F0F80040EAC100306020780B
:1008700000071FD42078400732D4E56995B170682D
:1008800000F00C00082840F08F80012D0ED0706819
:10089000216A00F480328A4208D1616A00F4701043
:1008A000884203D1002002B0BDE8F081012002B0EF
:1008B000BDE8F081A069002862D00020C4F2422087
:1008C0000121C0F88014FFF7D1FD0546706A80074A
:1008D00000F18C80FFF7CAFD401B0228F6D92AE1FF
:1008E000F06910F0805808D1F06940F08050F06154
:1008F000F06900F080500090009847F20007C4F2C1
:1009000000073868C00529D4386840F48070386022
:10091000FFF7ACFD054600BF3868C0051ED4FFF7E1
:10092000A5FD401B6428F7D905E100BF2069002818
:1009300040F20000C4F2422000F0828001210160F8
:10094000FFF794FD054600BF306880073FF588AF8C
:10095000FFF78CFD401B0228F6D9ECE0E068002888
:1009600000F08080052800F09780012800F0988032
:10097000306A20F001003062306A20F0040092E01A
:100980000020C4F242200021C0F88014FFF76EFD61
:10099000054600BF706A80077FF56CAFFFF766FD04
:1009A000401B0228F6D9C6E00027C4F242270020E7
:1009B0003866FFF75BFD022D05460BD130688001DC
:1009C00040F1BE80FFF752FD401B02284FF00300AC
:1009D000F4D968E7306880017FF564AFFFF746FD22
:1009E000401B02284FF00300F4D95CE740F20800F6
:1009F000C2F20000006844F6D351C1F26201A0FBCC
:100A00000101480A019000BF00BF0198411E002863
:100A100001913FF42FAF00BF0198411E00280191C2
:100A20003FF428AF00BF0198411E002801913FF418
:100A300021AF00BF0198411E00280191E4D119E7C0
:100A400000210160FFF712FD054600BF30688007F6
:100A50007FF50DAFFFF70AFD401B02284FF00300A2
:100A6000F4D920E7306A20F001003062306A20F0CB
:100A700004003062FFF7FAFC054641F2883700BFF8
:100A8000306A800720D5FFF7F1FC401BB8424FF0D9
:100A90000300F5D907E700BF306A40F00400306278
:100AA000306A40F001003062FFF7E0FC054641F299
:100AB000883700BF306A800706D4FFF7D7FC401B99
:100AC000B842F7D937E000BFB8F1000F7FF4D5AED8
:100AD000F06920F08050F061CFE600BF306820F46C
:100AE00080303060306820F480203060FFF7BEFC3A
:100AF000054600BF306880037FF59DAEFFF7B6FC6A
:100B0000401B64284FF00300F4D9CCE6306840F471
:100B100080203060306840F480303060FFF7A6FC01
:100B2000054600BF306880033FF585AEFFF79EFCA9
:100B3000401B6428F6D9032002B0BDE8F08100BF55
:100B4000206AB0F5803F05D17168A26821F40031B8
:100B5000114371607168626A21F474111043084393
:100B6000706001203866FFF781FC04463068800120
:100B70003FF598AEFFF77AFC001B02284FF0030008
:100B8000F4D990E6411E0020B0EB116F1CBF01208C
:100B900070474EF21002CEF2000251604EF6235121
:100BA000CEF20001F0230B700721906011607047B6
:100BB00010B590F83C20012A4FF0020233D080F8A3
:100BC0003D200268D2F804E0D2F808C00C682EF08C
:100BD0007003234340F2FF74C4F20004A242536046
:100BE0000ADCB2F1804F13D040F20043C4F200039C
:100BF0009A420DD011E000BF42F60043C4F2010357
:100C00009A4205D040F60003C4F200039A4204D190
:100C100049682CF08003194391600121002280F87B
:100C20003D1080F83C20104610BD0000002804BF95
:100C30000120704710B5044690F83D0028B9002007
:100C400084F83C00204600F067F8022084F83D005C
:100C5000206840F2FF730268C4F2000342F6004CC1
:100C60009842C4F2010C15DCB0F1804F1AD040F26A
:100C70000041C4F20001884214D0984218DCB0F15F
:100C8000804F1DD040F20041C4F20001884217D0CD
:100C90001AE000BF604505D040F60001C4F2000133
:100CA0008842EAD1A16822F070020A439842E6DD48
:100CB000604505D040F60001C4F20001884203D12E
:100CC000216922F440720A43A36922F08001D4F81A
:100CD00004E0E268194360450160C262C0F828E0A0
:100CE00002D16169CCF8301001214161002084F803
:100CF000461084F83E1084F83F1084F8401084F8C1
:100D0000411084F8421084F8431084F8441084F8A9
:100D1000451084F83D1010BD82B00068B0F1804FDE
:100D200014D042F60041C4F2010188421BD141F2C5
:100D30001800C4F20200016841F40061016000681B
:100D400000F400600190019802B0704741F2180071
:100D5000C4F20200416841F001014160406800F0C6
:100D600001000090009802B07047000090F83D101C
:100D700001291CBF01207047022180F83D10006846
:100D800040F2FF71C4F20001884209DCB0F1804FEB
:100D900012D040F20041C4F2000188420CD012E0AF
:100DA00042F60041C4F20101884205D040F600013C
:100DB000C4F20001884206D1816801F007010629CA
:100DC00004BF00207047016841F00101016000206C
:100DD0007047000080B590F83C20012A4FF00202D5
:100DE00000F0BF8080F83D20D0F800C04FF6777249
:100DF000DCF8083023EA0202CCF808200B683F2B0D
:100E00001CDD5F2B20DD602B50D0B3F5005F6DD073
:100E1000702B40F0A080D1E901E3C968DCF808201C
:100E200043EA0E0322F47F4243EA01211143CCF846
:100E30000810DCF8081041F077018AE01F2B29DC4C
:100E400063B3102B2AD086E0402B63D0502B40F0A8
:100E50008280D1F804E0C968DCF82030DCF820207A
:100E600022F00102CCF82020DCF8182022F0F00259
:100E700042EA011123F00A0242EA0E02CCF81810ED
:100E8000CCF82020DCF8081041F0570121F02001B7
:100E90005FE000BF202B01D0302B5CD1DCF80810C4
:100EA00021F07001194341F0070152E0D1F804E04C
:100EB000C968DCF8203023F01003CCF82030DCF8CF
:100EC0001830DCF8202023F4704322F0A00243EA1B
:100ED000013142EA0E12CCF81810CCF82020DCF8D0
:100EE000081041F0670121F0100132E0D1E901E37F
:100EF000C968DCF8082043EA0E0322F47F4243EA83
:100F000001211143CCF80810DCF8081041F48041AD
:100F10001FE000BFD1F804E0C968DCF82030DCF83D
:100F2000202022F00102CCF82020DCF8182022F04A
:100F3000F00242EA011123F00A0242EA0E02CCF862
:100F40001810CCF82020DCF8081041F0470121F0FF
:100F50003001CCF808100121002280F83D1080F803
:100F60003C20104680BD000080B586B0006800219E
:100F7000B0F1804F049101D006B080BD41F218005D
:100F8000C4F20200016841F004010160006802A996
:100F900000F00400019001980220CDE902000590C4
:100FA00040F60000C4F20100FFF750F906B080BD22
:100FB0002DE9F04390F83C30012B04BF0220BDE83E
:100FC000F0834FEAB202032A00F2E580DFE802F084
:100FD000023A76B0036842F600461A6AC4F2010685
:100FE00022F001021A621D6A1A465C6852F818CF94
:100FF000B3428E68D1F800E025F0020545EA060507
:101000000CD1CE68D1E9057824F4407425F00C05A4
:1010100026F004063C43354344EA08042CF07307E9
:1010200047EA0E075C609F614F6809695F631D6254
:101030009F6947F008079F619F6927F004079F6138
:10104000A6E000BF036842F600461A6AC4F2010631
:1010500022F010021A621D6A1A46D3F804C052F830
:10106000184FB3428E68D1F800E025F0200545EA1C
:1010700006150FD1CE68D1E905986FF0400707EA51
:1010800006162CF4406725F0C00547EA890735436A
:1010900047EA880C24F4E64444EA0E27C3F804C067
:1010A0009F614F6809699F631D629F6947F40067EC
:1010B0009F619F6927F480679F6168E0036842F63B
:1010C00000461A6AC4F2010622F480721A621D6A8E
:1010D0001A46D3F804C052F81CEFB3428E680C686D
:1010E00025F4007545EA06250FD1CE68D1E90598AB
:1010F000360240F2FF47BE432CF4405725F44065CA
:1011000047EA0917354347EA081C2EF073072743BF
:10111000C3F804C0DF614F680969DF631D62DF69DE
:1011200047F00807DF61DF6927F00407DF612FE080
:10113000036842F600471A6AC4F2010722F480529B
:101140001A621A46D3F820C05D6852F81C4FD1F8D5
:1011500000E08E68BB4204D14F6925F4804545EA22
:1011600087152CF4005747EA063724F4E64646EA8A
:101170000E265D60DE614E6809691E641F62DF69CC
:1011800047F40067DF61DF6927F48067DF610902E8
:10119000136819431160002180F83C100846BDE82F
:1011A000F0830000002804BF0120704710B50446FA
:1011B00090F83D0028B9002084F83C00204600F05B
:1011C00067F8022084F83D00206840F2FF7302684F
:1011D000C4F2000342F6004C9842C4F2010C15DC44
:1011E000B0F1804F1AD040F20041C4F200018842B1
:1011F00014D0984218DCB0F1804F1DD040F200416D
:10120000C4F20001884217D01AE000BF604505D043
:1012100040F60001C4F200018842EAD1A16822F040
:1012200070020A439842E6DD604505D040F60001B1
:10123000C4F20001884203D1216922F440720A43BA
:10124000A36922F08001D4F804E0E2681943604504
:101250000160C262C0F828E002D16169CCF83010A8
:1012600001214161002084F8461084F83E1084F882
:101270003F1084F8401084F8411084F8421084F83C
:10128000431084F8441084F8451084F83D1010BDD4
:101290007047000041B1082910D0042914BF00F1A3
:1012A000410200F13F020BE090F83E20012A1CBFF2
:1012B00001207047022280F83E2013E000F1400236
:1012C0001278012A1CBF012070470222082907D08A
:1012D000042914BF80F8412080F83F2002E000BFBD
:1012E00080F84020006801F01F010122036A8A4053
:1012F00023EA02010162036A42F64441C4F2010199
:101300001A43A1F14403984202620FD040F2FF71E8
:10131000C4F20001884213DCB0F1804F1CD040F2CF
:101320000041C4F20001884216D01CE00A6842F471
:1013300000420A6040F2FF71C4F200018842EBDD16
:1013400042F60041C4F20101884205D040F6000196
:10135000C4F20001884206D1816801F00701062924
:1013600004BF00207047016841F0010101600020C6
:1013700070470000002804BF0120704710B50446E4
:1013800090F83D0028B9002084F83C00204600F089
:101390005FF8242084F83D002068D4E90212C36875
:1013A00023F40053C360036923F440531A430261DA
:1013B000D4E904231143C268194341F20C639A43F0
:1013C0001143C1604169A26921F44071114343F6A0
:1013D0000002C4F201029042416103D0FFF7D0F94C
:1013E00002E000BFFFF7E0F962681921484391006D
:1013F000B0FBF1F048F21F51C5F2EB11A0FB012345
:101400005A096FF0630302FB0300322303EB001061
:10141000A0FB0101F02303EA5113206803EB021241
:10142000C1F3431111448160016921F490410161CC
:10143000416921F02A014161C16841F40051C16054
:1014400000202021206484F83D1084F83E1010BD57
:1014500070B586B040F60004C4F20104006804F5DB
:10146000405100268842049602D006B070BD00BFED
:1014700041F21800C4F20200016802AD41F480415B
:101480000160016801F4804101910199016841F016
:10149000040101600068294600F0040001900198F1
:1014A0004FF4007002900220039003200590204624
:1014B000FEF7CCFE4FF48060CDE9020620462946B7
:1014C0000496FEF7C3FE06B070BD0000FEE7000004
:1014D000FEE70000FEE700007047000070470000D4
:1014E000FEF7CABF70470000FEE7000092B0FEF7AB
:1014F000D1FF00240120CDE90B44CDE90944069039
:101500000A904FF4E0104FF4803102250F9006A8A6
:10151000CDE90714CDE90D51FFF75AF920B1EFF3EA
:10152000108072B6FEE700BF0F20CDE900054FF432
:101530008060CDE90304684602210294FFF740F879
:1015400020B1EFF3108072B6FEE700BF41F2180041
:10155000C4F20200016840F6004841F02001016039
:101560000168C4F2010801F02001069106990168A2
:10157000A8F5806541F0040101600168002201F0D6
:10158000040106910699016840F6380641F0080109
:101590000160006840F6380100F0080006900698E7
:1015A00028460027FEF75CFF404644F6284100220B
:1015B00044F62849FEF754FF069606AE4FF0010A9E
:1015C000022428463146CDE907A70994FEF73EFEDE
:1015D00040463146CDE906A70894FEF737FE40465F
:1015E0003146CDE9069ACDE90874FEF72FFE4AF29E
:1015F0009020CDE90607404631460897FEF726FEC3
:1016000040F2B80008F50051C2F200004FF6FF7337
:101610000997CDE90777CDE90077472280E8860072
:10162000C0E90337C0E90577FFF700FB20B1EFF30E
:10163000108072B6FEE700BF4FF48050069040F273
:10164000B800C2F2000006A9FFF7C4FB20B1EFF317
:10165000108072B6FEE700BF40F2B800C2F2000090
:101660006946FFF7A5FA28B1EFF3108072B600BF04
:10167000FEE700BF40F200100021C2F200004FF070
:101680008042472344F61F670391CDE90111CDE95C
:101690001011CDE90B11CDE90911C0E90023C0E912
:1016A000021701618161FFF7C1FA28B1EFF31080E1
:1016B00072B600BFFEE700BF4FF48050009040F2CA
:1016C0000010C2F200006946FFF784FB20B1EFF37F
:1016D000108072B6FEE700BF40F20010C2F20000B8
:1016E000FFF760FD20B1EFF3108072B6FEE700BF98
:1016F00040F20010C2F2000010A9FFF759FA28B119
:10170000EFF3108072B600BFFEE700BF60200690C6
:1017100040F200100025C2F2000006A90422CDE923
:1017200007550A95FFF744FC20B1EFF3108072B61D
:10173000FEE700BF40F20010C2F20000FFF714FC09
:1017400040F2700008F53051C2F2000040F8041F6A
:101750004FF4E1310C22C0E90115C0E90355C0E99D
:101760000525C561FFF706FE20B1EFF3108072B6C4
:10177000FEE700BF40F20010C2F200000421FFF7B4
:1017800089FD40F2B800C2F20000FFF7EFFAFEE771
:10179000010200000000000000000102030406072F
:1017A0000809000000000102030402030405060703
:1017B00008090A0B0C0D0E0F10100000E0170008AE
:1017C000000000201000000028010008F0170008A9
:1017D0001000002040070000440100080000000045
:1017E00001000000100000000024F40000000000D0
:04000005080000ED02
:00000001FF
